{
  "_format": "hh3-artifact-1",
  "contractName": "Staking",
  "sourceName": "contracts/Staking.sol",
  "abi": [
    {
      "inputs": [
        {
          "internalType": "address",
          "name": "tokenAddress",
          "type": "address"
        }
      ],
      "stateMutability": "nonpayable",
      "type": "constructor"
    },
    {
      "inputs": [],
      "name": "claim",
      "outputs": [],
      "stateMutability": "nonpayable",
      "type": "function"
    },
    {
      "inputs": [
        {
          "internalType": "address",
          "name": "user",
          "type": "address"
        }
      ],
      "name": "pendingRewards",
      "outputs": [
        {
          "internalType": "uint256",
          "name": "",
          "type": "uint256"
        }
      ],
      "stateMutability": "view",
      "type": "function"
    },
    {
      "inputs": [],
      "name": "rewardRate",
      "outputs": [
        {
          "internalType": "uint256",
          "name": "",
          "type": "uint256"
        }
      ],
      "stateMutability": "view",
      "type": "function"
    },
    {
      "inputs": [
        {
          "internalType": "uint256",
          "name": "amount",
          "type": "uint256"
        }
      ],
      "name": "stake",
      "outputs": [],
      "stateMutability": "nonpayable",
      "type": "function"
    },
    {
      "inputs": [
        {
          "internalType": "address",
          "name": "",
          "type": "address"
        }
      ],
      "name": "stakes",
      "outputs": [
        {
          "internalType": "uint256",
          "name": "amount",
          "type": "uint256"
        },
        {
          "internalType": "uint256",
          "name": "lastClaim",
          "type": "uint256"
        }
      ],
      "stateMutability": "view",
      "type": "function"
    },
    {
      "inputs": [],
      "name": "token",
      "outputs": [
        {
          "internalType": "contract IERC20",
          "name": "",
          "type": "address"
        }
      ],
      "stateMutability": "view",
      "type": "function"
    },
    {
      "inputs": [
        {
          "internalType": "uint256",
          "name": "amount",
          "type": "uint256"
        }
      ],
      "name": "unstake",
      "outputs": [],
      "stateMutability": "nonpayable",
      "type": "function"
    }
  ],
  "bytecode": "0x60806040526001600255348015610014575f5ffd5b50604051610da5380380610da5833981810160405281019061003691906100d9565b805f5f6101000a81548173ffffffffffffffffffffffffffffffffffffffff021916908373ffffffffffffffffffffffffffffffffffffffff16021790555050610104565b5f5ffd5b5f73ffffffffffffffffffffffffffffffffffffffff82169050919050565b5f6100a88261007f565b9050919050565b6100b88161009e565b81146100c2575f5ffd5b50565b5f815190506100d3816100af565b92915050565b5f602082840312156100ee576100ed61007b565b5b5f6100fb848285016100c5565b91505092915050565b610c94806101115f395ff3fe608060405234801561000f575f5ffd5b506004361061007b575f3560e01c80634e71d92d116100595780634e71d92d146100fc5780637b0a47ee14610106578063a694fc3a14610124578063fc0c546a146101405761007b565b806316934fc41461007f5780632e17de78146100b057806331d7a262146100cc575b5f5ffd5b61009960048036038101906100949190610766565b61015e565b6040516100a79291906107a9565b60405180910390f35b6100ca60048036038101906100c591906107fa565b61017e565b005b6100e660048036038101906100e19190610766565b6102c5565b6040516100f39190610825565b60405180910390f35b610104610360565b005b61010e610511565b60405161011b9190610825565b60405180910390f35b61013e600480360381019061013991906107fa565b610517565b005b6101486106e4565b6040516101559190610899565b60405180910390f35b6001602052805f5260405f205f91509050805f0154908060010154905082565b5f60015f3373ffffffffffffffffffffffffffffffffffffffff1673ffffffffffffffffffffffffffffffffffffffff1681526020019081526020015f20905081815f01541015610204576040517f08c379a00000000000000000000000000000000000000000000000000000000081526004016101fb9061090c565b60405180910390fd5b61020c610360565b81815f015f82825461021e9190610957565b925050819055505f5f9054906101000a900473ffffffffffffffffffffffffffffffffffffffff1673ffffffffffffffffffffffffffffffffffffffff1663a9059cbb33846040518363ffffffff1660e01b8152600401610280929190610999565b6020604051808303815f875af115801561029c573d5f5f3e3d5ffd5b505050506040513d601f19601f820116820180604052508101906102c091906109f5565b505050565b5f5f60015f8473ffffffffffffffffffffffffffffffffffffffff1673ffffffffffffffffffffffffffffffffffffffff1681526020019081526020015f2090505f815f015403610319575f91505061035b565b5f81600101544261032a9190610957565b90506283d60081600254845f01546103429190610a20565b61034c9190610a20565b6103569190610a8e565b925050505b919050565b5f60015f3373ffffffffffffffffffffffffffffffffffffffff1673ffffffffffffffffffffffffffffffffffffffff1681526020019081526020015f2090505f815f0154116103e5576040517f08c379a00000000000000000000000000000000000000000000000000000000081526004016103dc90610b08565b60405180910390fd5b5f8160010154426103f69190610957565b90505f6283d60082600254855f015461040f9190610a20565b6104199190610a20565b6104239190610a8e565b90505f8111610467576040517f08c379a000000000000000000000000000000000000000000000000000000000815260040161045e90610b70565b60405180910390fd5b4283600101819055505f5f9054906101000a900473ffffffffffffffffffffffffffffffffffffffff1673ffffffffffffffffffffffffffffffffffffffff1663a9059cbb33836040518363ffffffff1660e01b81526004016104cb929190610999565b6020604051808303815f875af11580156104e7573d5f5f3e3d5ffd5b505050506040513d601f19601f8201168201806040525081019061050b91906109f5565b50505050565b60025481565b5f8111610559576040517f08c379a000000000000000000000000000000000000000000000000000000000815260040161055090610bd8565b60405180910390fd5b5f5f9054906101000a900473ffffffffffffffffffffffffffffffffffffffff1673ffffffffffffffffffffffffffffffffffffffff166323b872dd3330846040518463ffffffff1660e01b81526004016105b693929190610bf6565b6020604051808303815f875af11580156105d2573d5f5f3e3d5ffd5b505050506040513d601f19601f820116820180604052508101906105f691906109f5565b505f60015f3373ffffffffffffffffffffffffffffffffffffffff1673ffffffffffffffffffffffffffffffffffffffff1681526020019081526020015f205f0154111561064757610646610360565b5b8060015f3373ffffffffffffffffffffffffffffffffffffffff1673ffffffffffffffffffffffffffffffffffffffff1681526020019081526020015f205f015f8282546106959190610c2b565b925050819055504260015f3373ffffffffffffffffffffffffffffffffffffffff1673ffffffffffffffffffffffffffffffffffffffff1681526020019081526020015f206001018190555050565b5f5f9054906101000a900473ffffffffffffffffffffffffffffffffffffffff1681565b5f5ffd5b5f73ffffffffffffffffffffffffffffffffffffffff82169050919050565b5f6107358261070c565b9050919050565b6107458161072b565b811461074f575f5ffd5b50565b5f813590506107608161073c565b92915050565b5f6020828403121561077b5761077a610708565b5b5f61078884828501610752565b91505092915050565b5f819050919050565b6107a381610791565b82525050565b5f6040820190506107bc5f83018561079a565b6107c9602083018461079a565b9392505050565b6107d981610791565b81146107e3575f5ffd5b50565b5f813590506107f4816107d0565b92915050565b5f6020828403121561080f5761080e610708565b5b5f61081c848285016107e6565b91505092915050565b5f6020820190506108385f83018461079a565b92915050565b5f819050919050565b5f61086161085c6108578461070c565b61083e565b61070c565b9050919050565b5f61087282610847565b9050919050565b5f61088382610868565b9050919050565b61089381610879565b82525050565b5f6020820190506108ac5f83018461088a565b92915050565b5f82825260208201905092915050565b7f4e6f7420656e6f756768207374616b65640000000000000000000000000000005f82015250565b5f6108f66011836108b2565b9150610901826108c2565b602082019050919050565b5f6020820190508181035f830152610923816108ea565b9050919050565b7f4e487b71000000000000000000000000000000000000000000000000000000005f52601160045260245ffd5b5f61096182610791565b915061096c83610791565b92508282039050818111156109845761098361092a565b5b92915050565b6109938161072b565b82525050565b5f6040820190506109ac5f83018561098a565b6109b9602083018461079a565b9392505050565b5f8115159050919050565b6109d4816109c0565b81146109de575f5ffd5b50565b5f815190506109ef816109cb565b92915050565b5f60208284031215610a0a57610a09610708565b5b5f610a17848285016109e1565b91505092915050565b5f610a2a82610791565b9150610a3583610791565b9250828202610a4381610791565b91508282048414831517610a5a57610a5961092a565b5b5092915050565b7f4e487b71000000000000000000000000000000000000000000000000000000005f52601260045260245ffd5b5f610a9882610791565b9150610aa383610791565b925082610ab357610ab2610a61565b5b828204905092915050565b7f4e6f7468696e67207374616b65640000000000000000000000000000000000005f82015250565b5f610af2600e836108b2565b9150610afd82610abe565b602082019050919050565b5f6020820190508181035f830152610b1f81610ae6565b9050919050565b7f4e6f2072657761726473207965740000000000000000000000000000000000005f82015250565b5f610b5a600e836108b2565b9150610b6582610b26565b602082019050919050565b5f6020820190508181035f830152610b8781610b4e565b9050919050565b7f416d6f756e74203e2030000000000000000000000000000000000000000000005f82015250565b5f610bc2600a836108b2565b9150610bcd82610b8e565b602082019050919050565b5f6020820190508181035f830152610bef81610bb6565b9050919050565b5f606082019050610c095f83018661098a565b610c16602083018561098a565b610c23604083018461079a565b949350505050565b5f610c3582610791565b9150610c4083610791565b9250828201905080821115610c5857610c5761092a565b5b9291505056fea2646970667358221220f1fb91b575c1d43839bf2ad86162e8b3221882f2df7252ecfeef2f0a5ab4c45564736f6c634300081c0033",
  "linkReferences": {},
  "deployedLinkReferences": {},
  "immutableReferences": {},
  "inputSourceName": "project/contracts/Staking.sol",
  "buildInfoId": "solc-0_8_28-1fc42741d417a7b3111dbbad368bbfbb52c5e2b6"
}