{
  "_format": "hh3-artifact-1",
  "contractName": "CJC",
  "sourceName": "contracts/CJC.sol",
  "abi": [
    {
      "inputs": [],
      "stateMutability": "nonpayable",
      "type": "constructor"
    },
    {
      "anonymous": false,
      "inputs": [
        {
          "indexed": true,
          "internalType": "address",
          "name": "owner",
          "type": "address"
        },
        {
          "indexed": true,
          "internalType": "address",
          "name": "spender",
          "type": "address"
        },
        {
          "indexed": false,
          "internalType": "uint256",
          "name": "value",
          "type": "uint256"
        }
      ],
      "name": "Approval",
      "type": "event"
    },
    {
      "anonymous": false,
      "inputs": [
        {
          "indexed": true,
          "internalType": "address",
          "name": "from",
          "type": "address"
        },
        {
          "indexed": false,
          "internalType": "uint256",
          "name": "value",
          "type": "uint256"
        }
      ],
      "name": "Burn",
      "type": "event"
    },
    {
      "anonymous": false,
      "inputs": [
        {
          "indexed": true,
          "internalType": "address",
          "name": "from",
          "type": "address"
        },
        {
          "indexed": true,
          "internalType": "address",
          "name": "to",
          "type": "address"
        },
        {
          "indexed": false,
          "internalType": "uint256",
          "name": "value",
          "type": "uint256"
        }
      ],
      "name": "Transfer",
      "type": "event"
    },
    {
      "inputs": [
        {
          "internalType": "address",
          "name": "",
          "type": "address"
        },
        {
          "internalType": "address",
          "name": "",
          "type": "address"
        }
      ],
      "name": "allowance",
      "outputs": [
        {
          "internalType": "uint256",
          "name": "",
          "type": "uint256"
        }
      ],
      "stateMutability": "view",
      "type": "function"
    },
    {
      "inputs": [
        {
          "internalType": "address",
          "name": "spender",
          "type": "address"
        },
        {
          "internalType": "uint256",
          "name": "amount",
          "type": "uint256"
        }
      ],
      "name": "approve",
      "outputs": [
        {
          "internalType": "bool",
          "name": "",
          "type": "bool"
        }
      ],
      "stateMutability": "nonpayable",
      "type": "function"
    },
    {
      "inputs": [
        {
          "internalType": "address",
          "name": "",
          "type": "address"
        }
      ],
      "name": "balanceOf",
      "outputs": [
        {
          "internalType": "uint256",
          "name": "",
          "type": "uint256"
        }
      ],
      "stateMutability": "view",
      "type": "function"
    },
    {
      "inputs": [],
      "name": "burnRate",
      "outputs": [
        {
          "internalType": "uint256",
          "name": "",
          "type": "uint256"
        }
      ],
      "stateMutability": "view",
      "type": "function"
    },
    {
      "inputs": [],
      "name": "decimals",
      "outputs": [
        {
          "internalType": "uint8",
          "name": "",
          "type": "uint8"
        }
      ],
      "stateMutability": "view",
      "type": "function"
    },
    {
      "inputs": [],
      "name": "name",
      "outputs": [
        {
          "internalType": "string",
          "name": "",
          "type": "string"
        }
      ],
      "stateMutability": "view",
      "type": "function"
    },
    {
      "inputs": [],
      "name": "owner",
      "outputs": [
        {
          "internalType": "address",
          "name": "",
          "type": "address"
        }
      ],
      "stateMutability": "view",
      "type": "function"
    },
    {
      "inputs": [],
      "name": "symbol",
      "outputs": [
        {
          "internalType": "string",
          "name": "",
          "type": "string"
        }
      ],
      "stateMutability": "view",
      "type": "function"
    },
    {
      "inputs": [],
      "name": "totalSupply",
      "outputs": [
        {
          "internalType": "uint256",
          "name": "",
          "type": "uint256"
        }
      ],
      "stateMutability": "view",
      "type": "function"
    },
    {
      "inputs": [
        {
          "internalType": "address",
          "name": "to",
          "type": "address"
        },
        {
          "internalType": "uint256",
          "name": "amount",
          "type": "uint256"
        }
      ],
      "name": "transfer",
      "outputs": [
        {
          "internalType": "bool",
          "name": "",
          "type": "bool"
        }
      ],
      "stateMutability": "nonpayable",
      "type": "function"
    },
    {
      "inputs": [
        {
          "internalType": "address",
          "name": "from",
          "type": "address"
        },
        {
          "internalType": "address",
          "name": "to",
          "type": "address"
        },
        {
          "internalType": "uint256",
          "name": "amount",
          "type": "uint256"
        }
      ],
      "name": "transferFrom",
      "outputs": [
        {
          "internalType": "bool",
          "name": "",
          "type": "bool"
        }
      ],
      "stateMutability": "nonpayable",
      "type": "function"
    }
  ],
  "bytecode": "0x60806040526040518060400160405280600f81526020017f436f616368204a6f656c20436f696e00000000000000000000000000000000008152505f908161004791906103f7565b506040518060400160405280600381526020017f434a4300000000000000000000000000000000000000000000000000000000008152506001908161008c91906103f7565b50601260025f6101000a81548160ff021916908360ff1602179055506c01431e0fae6d7217caa000000060035560016007553480156100c9575f5ffd5b503360065f6101000a81548173ffffffffffffffffffffffffffffffffffffffff021916908373ffffffffffffffffffffffffffffffffffffffff16021790555060035460045f3373ffffffffffffffffffffffffffffffffffffffff1673ffffffffffffffffffffffffffffffffffffffff1681526020019081526020015f20819055503373ffffffffffffffffffffffffffffffffffffffff165f73ffffffffffffffffffffffffffffffffffffffff167fddf252ad1be2c89b69c2b068fc378daa952ba7f163c4a11628f55a4df523b3ef6003546040516101ad91906104d5565b60405180910390a36104ee565b5f81519050919050565b7f4e487b71000000000000000000000000000000000000000000000000000000005f52604160045260245ffd5b7f4e487b71000000000000000000000000000000000000000000000000000000005f52602260045260245ffd5b5f600282049050600182168061023557607f821691505b602082108103610248576102476101f1565b5b50919050565b5f819050815f5260205f209050919050565b5f6020601f8301049050919050565b5f82821b905092915050565b5f600883026102aa7fffffffffffffffffffffffffffffffffffffffffffffffffffffffffffffffff8261026f565b6102b4868361026f565b95508019841693508086168417925050509392505050565b5f819050919050565b5f819050919050565b5f6102f86102f36102ee846102cc565b6102d5565b6102cc565b9050919050565b5f819050919050565b610311836102de565b61032561031d826102ff565b84845461027b565b825550505050565b5f5f905090565b61033c61032d565b610347818484610308565b505050565b5b8181101561036a5761035f5f82610334565b60018101905061034d565b5050565b601f8211156103af576103808161024e565b61038984610260565b81016020851015610398578190505b6103ac6103a485610260565b83018261034c565b50505b505050565b5f82821c905092915050565b5f6103cf5f19846008026103b4565b1980831691505092915050565b5f6103e783836103c0565b9150826002028217905092915050565b610400826101ba565b67ffffffffffffffff811115610419576104186101c4565b5b610423825461021e565b61042e82828561036e565b5f60209050601f83116001811461045f575f841561044d578287015190505b61045785826103dc565b8655506104be565b601f19841661046d8661024e565b5f5b828110156104945784890151825560018201915060208501945060208101905061046f565b868310156104b157848901516104ad601f8916826103c0565b8355505b6001600288020188555050505b505050505050565b6104cf816102cc565b82525050565b5f6020820190506104e85f8301846104c6565b92915050565b610dcb806104fb5f395ff3fe608060405234801561000f575f5ffd5b50600436106100a7575f3560e01c806370a082311161006f57806370a08231146101655780638da5cb5b1461019557806395d89b41146101b3578063a9059cbb146101d1578063bed9985014610201578063dd62ed3e1461021f576100a7565b806306fdde03146100ab578063095ea7b3146100c957806318160ddd146100f957806323b872dd14610117578063313ce56714610147575b5f5ffd5b6100b361024f565b6040516100c091906108d8565b60405180910390f35b6100e360048036038101906100de9190610989565b6102da565b6040516100f091906109e1565b60405180910390f35b6101016103c7565b60405161010e9190610a09565b60405180910390f35b610131600480360381019061012c9190610a22565b6103cd565b60405161013e91906109e1565b60405180910390f35b61014f61052b565b60405161015c9190610a8d565b60405180910390f35b61017f600480360381019061017a9190610aa6565b61053d565b60405161018c9190610a09565b60405180910390f35b61019d610552565b6040516101aa9190610ae0565b60405180910390f35b6101bb610577565b6040516101c891906108d8565b60405180910390f35b6101eb60048036038101906101e69190610989565b610603565b6040516101f891906109e1565b60405180910390f35b610209610617565b6040516102169190610a09565b60405180910390f35b61023960048036038101906102349190610af9565b61061d565b6040516102469190610a09565b60405180910390f35b5f805461025b90610b64565b80601f016020809104026020016040519081016040528092919081815260200182805461028790610b64565b80156102d25780601f106102a9576101008083540402835291602001916102d2565b820191905f5260205f20905b8154815290600101906020018083116102b557829003601f168201915b505050505081565b5f8160055f3373ffffffffffffffffffffffffffffffffffffffff1673ffffffffffffffffffffffffffffffffffffffff1681526020019081526020015f205f8573ffffffffffffffffffffffffffffffffffffffff1673ffffffffffffffffffffffffffffffffffffffff1681526020019081526020015f20819055508273ffffffffffffffffffffffffffffffffffffffff163373ffffffffffffffffffffffffffffffffffffffff167f8c5be1e5ebec7d5bd14f71427d1e84f3dd0314c0f7b2291e5b200ac8c7c3b925846040516103b59190610a09565b60405180910390a36001905092915050565b60035481565b5f8160055f8673ffffffffffffffffffffffffffffffffffffffff1673ffffffffffffffffffffffffffffffffffffffff1681526020019081526020015f205f3373ffffffffffffffffffffffffffffffffffffffff1673ffffffffffffffffffffffffffffffffffffffff1681526020019081526020015f20541015610489576040517f08c379a000000000000000000000000000000000000000000000000000000000815260040161048090610bde565b60405180910390fd5b8160055f8673ffffffffffffffffffffffffffffffffffffffff1673ffffffffffffffffffffffffffffffffffffffff1681526020019081526020015f205f3373ffffffffffffffffffffffffffffffffffffffff1673ffffffffffffffffffffffffffffffffffffffff1681526020019081526020015f205f8282546105109190610c29565b9250508190555061052284848461063d565b90509392505050565b60025f9054906101000a900460ff1681565b6004602052805f5260405f205f915090505481565b60065f9054906101000a900473ffffffffffffffffffffffffffffffffffffffff1681565b6001805461058490610b64565b80601f01602080910402602001604051908101604052809291908181526020018280546105b090610b64565b80156105fb5780601f106105d2576101008083540402835291602001916105fb565b820191905f5260205f20905b8154815290600101906020018083116105de57829003601f168201915b505050505081565b5f61060f33848461063d565b905092915050565b60075481565b6005602052815f5260405f20602052805f5260405f205f91509150505481565b5f8160045f8673ffffffffffffffffffffffffffffffffffffffff1673ffffffffffffffffffffffffffffffffffffffff1681526020019081526020015f205410156106be576040517f08c379a00000000000000000000000000000000000000000000000000000000081526004016106b590610ca6565b60405180910390fd5b5f6064600754846106cf9190610cc4565b6106d99190610d32565b90505f81846106e89190610c29565b90508360045f8873ffffffffffffffffffffffffffffffffffffffff1673ffffffffffffffffffffffffffffffffffffffff1681526020019081526020015f205f8282546107369190610c29565b925050819055508060045f8773ffffffffffffffffffffffffffffffffffffffff1673ffffffffffffffffffffffffffffffffffffffff1681526020019081526020015f205f8282546107899190610d62565b925050819055508160035f8282546107a19190610c29565b925050819055508473ffffffffffffffffffffffffffffffffffffffff168673ffffffffffffffffffffffffffffffffffffffff167fddf252ad1be2c89b69c2b068fc378daa952ba7f163c4a11628f55a4df523b3ef836040516108059190610a09565b60405180910390a38573ffffffffffffffffffffffffffffffffffffffff167fcc16f5dbb4873280815c1ee09dbd06736cffcc184412cf7a71a0fdb75d397ca5836040516108539190610a09565b60405180910390a26001925050509392505050565b5f81519050919050565b5f82825260208201905092915050565b8281835e5f83830152505050565b5f601f19601f8301169050919050565b5f6108aa82610868565b6108b48185610872565b93506108c4818560208601610882565b6108cd81610890565b840191505092915050565b5f6020820190508181035f8301526108f081846108a0565b905092915050565b5f5ffd5b5f73ffffffffffffffffffffffffffffffffffffffff82169050919050565b5f610925826108fc565b9050919050565b6109358161091b565b811461093f575f5ffd5b50565b5f813590506109508161092c565b92915050565b5f819050919050565b61096881610956565b8114610972575f5ffd5b50565b5f813590506109838161095f565b92915050565b5f5f6040838503121561099f5761099e6108f8565b5b5f6109ac85828601610942565b92505060206109bd85828601610975565b9150509250929050565b5f8115159050919050565b6109db816109c7565b82525050565b5f6020820190506109f45f8301846109d2565b92915050565b610a0381610956565b82525050565b5f602082019050610a1c5f8301846109fa565b92915050565b5f5f5f60608486031215610a3957610a386108f8565b5b5f610a4686828701610942565b9350506020610a5786828701610942565b9250506040610a6886828701610975565b9150509250925092565b5f60ff82169050919050565b610a8781610a72565b82525050565b5f602082019050610aa05f830184610a7e565b92915050565b5f60208284031215610abb57610aba6108f8565b5b5f610ac884828501610942565b91505092915050565b610ada8161091b565b82525050565b5f602082019050610af35f830184610ad1565b92915050565b5f5f60408385031215610b0f57610b0e6108f8565b5b5f610b1c85828601610942565b9250506020610b2d85828601610942565b9150509250929050565b7f4e487b71000000000000000000000000000000000000000000000000000000005f52602260045260245ffd5b5f6002820490506001821680610b7b57607f821691505b602082108103610b8e57610b8d610b37565b5b50919050565b7f4e6f7420616c6c6f7765640000000000000000000000000000000000000000005f82015250565b5f610bc8600b83610872565b9150610bd382610b94565b602082019050919050565b5f6020820190508181035f830152610bf581610bbc565b9050919050565b7f4e487b71000000000000000000000000000000000000000000000000000000005f52601160045260245ffd5b5f610c3382610956565b9150610c3e83610956565b9250828203905081811115610c5657610c55610bfc565b5b92915050565b7f496e73756666696369656e742062616c616e63650000000000000000000000005f82015250565b5f610c90601483610872565b9150610c9b82610c5c565b602082019050919050565b5f6020820190508181035f830152610cbd81610c84565b9050919050565b5f610cce82610956565b9150610cd983610956565b9250828202610ce781610956565b91508282048414831517610cfe57610cfd610bfc565b5b5092915050565b7f4e487b71000000000000000000000000000000000000000000000000000000005f52601260045260245ffd5b5f610d3c82610956565b9150610d4783610956565b925082610d5757610d56610d05565b5b828204905092915050565b5f610d6c82610956565b9150610d7783610956565b9250828201905080821115610d8f57610d8e610bfc565b5b9291505056fea264697066735822122045b04482a7f4eb8a09675b54e76d5bd99749cbd6d4d2cdb4dd951ea1923e0a0864736f6c634300081c0033",
  "linkReferences": {},
  "deployedLinkReferences": {},
  "immutableReferences": {},
  "inputSourceName": "project/contracts/CJC.sol",
  "buildInfoId": "solc-0_8_28-1fc42741d417a7b3111dbbad368bbfbb52c5e2b6"
}